S02100002E2E2F2E2E2F62696E2F736F6C5F53544D33324C5F6D6731312E737265639E
S31508000000C62800200D01000835DE000835DE000888
S3150800001035DE000835DE000835DE00080000000081
S3150800002000000000000000000000000035DE0008A7
S3150800003035DE00080000000035DE000845AB000884
S3150800004035DE000835DE000835DE000835DE000836
S3150800005035DE000835DE000835DE000835DE000826
S3150800006035DE000835DE000835DE000835DE000816
S3150800007035DE000835DE000835DE000835DE000806
S3150800008035DE000835DE000835DE000835DE0008F6
S315080000906DD1000835DE000835DE000835DE0008BB
S315080000A035DE000835DE000835DE000835DE0008D6
S315080000B035DE000835DE000835DE000835DE0008C6
S315080000C035DE000835DE000835DE000835DE0008B6
S315080000D035DE00081D8C0008298C0008358C0008C0
S315080000E035DE000835DE000835DE000835DE000896
S315080000F035DE0008000000000000000000000000D7
S3150800010000000000000000005FF808F1002103E08D
S315080001100A4B5B584350043109480A4B42189A4225
S31508000120F6D3094A02E0002342F8043B074B9A42F9
S31508000130F9D30DF065F809F0F5FA704720FB0008C9
S3150800014000000020A0030020A0030020D8040020FF
S3150800015020FB000800000020A0030020A0030020C8
S31508000160D804002040F0BF6040F40030014BD8604E
S31508000170704700BF00ED00E0C378FBB1154BD968A6
S31508000180C943C1F30221C1F10402437803FA02F21A
S315080001900F23CB4081780B40134302781B01DBB257
S315080001A00D490A4482F800330378580903F01F03FF
S315080001B0012202FA03F341F82030704703785A09FE
S315080001C003F01F030121994002F12003024A42F875
S315080001D02310704700ED00E000E100E021F06041E7
S315080001E021F07F010843014B9860704700ED00E05D
S315080001F021B1054A1369184310617047024A136909
S3150800020023EA00001061704700ED00E00428044A64
S3150800021013680CBF43F0040323F00403136070470C
S3150800022010E000E008B54FF40070012101F0BCFDB4
S315080002304FF40070002101F0B7FD08BD10B4436803
S3150800024023F0407222F480720B6813430A7943EA5A
S31508000250022343608468CA680B691A438B681A4389
S31508000260094B234013434A7943EA42038360036BED
S3150800027023F0F8720B7D013BDBB242EA03530363BA
S315080002805DF8044B704700BFFDF7FFC0002303600D
S315080002900371437183604FF04072C26003610123AA
S315080002A00375704703494B6823F4403203681343C8
S315080002B04B6070470027014000230360704700BF6A
S315080002C021B1836843F0010383607047836823F094
S315080002D001038360704700BF1AB143681943416040
S315080002E07047436823EA010141607047836823F039
S315080002F0F003194381607047436823F4400323F4ED
S3150800030000731943416070478162C262704700BF3B
S31508000310436823F01F0319434160704728B1064A12
S31508000320536843F4000353607047034A536823F441
S3150800033000035360704700BF0027014070B41329BB
S315080003400CD9C668A1F1140404EB44040725A5409A
S3150800035026EA0505A3402B43C36018E009290CD9F2
S315080003600669A1F10A0404EB44040725A54026EA18
S315080003700505A3402B43036109E0456901EB4106E6
S315080003800724B44025EA0404B34023434361062AFC
S315080003900BD8046C013A02EB82021F23934024EA2D
S315080003A0030391401943016434E00C2A0BD8C46B4B
S315080003B0073A02EB82021F23934024EA0303914083
S315080003C01943C16326E0122A0BD8846B0D3A02EB57
S315080003D082021F23934024EA030391401943816351
S315080003E018E0182A0BD8446B133A02EB82021F2333
S315080003F0934024EA03039140194341630AE0046BDE
S31508000400193A02EB82021F23934024EA0303914020
S315080004101943016370BC7047836843F08043836067
S31508000420704700BF8068C0F38070704721B1836849
S3150800043043F4806383607047836823F48063836032
S31508000440704700BF21B1836843F002038360704799
S31508000450836823F002038360704700BF436823F470
S315080004606043013943EA41334360704721B1436829
S3150800047043F4006343607047436823F400634360B2
S31508000480704700BF806D80B2704700BF21B1836896
S3150800049043F4807383607047836823F480738360B2
S315080004A0704700BF21B1836843F4007383607047C7
S315080004B0836823F400738360704700BF70B4132900
S315080004C00CD9C668A1F1140404EB44040725A54019
S315080004D026EA0505A3402B43C36018E009290CD971
S315080004E00669A1F10A0404EB44040725A54026EA97
S315080004F00505A3402B43036109E0456901EB410665
S315080005000724B44025EA0404B34023434361436CFB
S315080005100232C3F30154121BD2B202EB82021F2429
S31508000520944023EA040391401943416470BC704720
S31508000530436C23F44013013943EA0153436470477B
S3150800054082B0002301930190019B19440191019BFC
S315080005501A6002B0704700BF836823F470231943FA
S3150800056081607047836823F440131943816070479C
S31508000570836843F480038360704700BF8068C0F3D4
S315080005808050704721B1436843F4806343607047E5
S31508000590436823F480634360704700BF21B1436812
S315080005A043F4805343607047436823F480534360A1
S315080005B0704700BF82B0002301930190019B30333E
S315080005C019440191019B186880B202B0704700BFB8
S315080005D0C9B201238B401AB142681343436070477E
S315080005E0426822EA03034360704700BF0368194262
S315080005F014BF012000207047C9430160704700BF3F
S315080006004268036813EA112307D0C9B201238B4055
S31508000610134214BF0120002070470020704700BF16
S315080006206FEA1121016070470022014B1A6070477A
S31508000630007C004010B4084C236823F47C0323F4A0
S31508000640805341680268114382680A431343236052
S315080006505DF8044B704700BF007C004028B1064A8D
S31508000660136843F0100313607047034A136823F0B6
S3150800067010031360704700BF007C00400128044B3C
S3150800068018680CBFC0F3C010C0F34030704700BFF5
S31508000690007C004028B1064A136843F4003313600F
S315080006A07047034A136823F400331360704700BF8A
S315080006B0007C004028B1064A136843F4803313606F
S315080006C07047034A136823F480331360704700BFEA
S315080006D0007C00400122014B9A60704700300240BE
S315080006E0014B1860186870470030024041B1034654
S315080006F000EB8100044953F8042B0A608342FAD1BF
S31508000700014B1868704700BF00300240014B18685B
S31508000710704700BF00300240014B1871704700BF98
S3150800072000300240014B1879704700BF0030024084
S3150800073008B54FF00050012101F044FB4FF000507E
S31508000740002101F03FFB08BD30B4094D2A6840F688
S31508000750FE73834022EA03044A680B681A438B68CF
S315080007601343CA681343834023432B6030BC704746
S31508000770007400400023036043608360C3607047D1
S3150800078031B107490A680123834013430B60704758
S3150800079003490A680123834022EA03030B60704772
S315080007A00074004039B108494A68000901238340AA
S315080007B013434B60704704494A6800090123834084
S315080007C022EA03034B6070470074004028B1064ACA
S315080007D0536843F0030353607047034A536823F092
S315080007E003035360704700BF007400402AB1064AED
S315080007F013688140194311607047034A13688140A2
S3150800080023EA0101116070470074004082B000239A
S315080008100193054B0193019B083318440190019BF2
S31508000820196002B0704700BF0074004082B0002310
S315080008300193054B0193019B143318440190019BC6
S31508000840196002B0704700BF0074004008280CBF4A
S3150800085042EA012242EA0142014BC250704700BFF8
S315080008602074004082B000230193064B0193019B3C
S315080008702C3303EB90000190019B186880B202B0FC
S31508000880704700BF0074004039B108490A684FF440
S315080008908053834013430B60704704490A684FF43A
S315080008A08053834022EA03030B60704700740040BC
S315080008B02AB1064A13688140194311607047034AF2
S315080008C01368814023EA01011160704700740040F3
S315080008D0034B5B6B8140194214BF0120002070470F
S315080008E0007400408140014B596370470074004012
S315080008F0064B1A6881405B6B194204D0114214BF3B
S315080009000120002070470020704700BF0074004097
S315080009108140014B5963704700740040014B1868C9
S31508000920000C7047002004E0024B1868C0F30B0067
S31508000930704700BF002004E021B1054A53681843F8
S3150800094050607047024A536823EA000050607047B7
S31508000950002004E021B1054A936818439060704767
S31508000960024A936823EA000090607047002004E07A
S3150800097021B1054AD3681843D0607047024AD36844
S3150800098023EA0000D0607047002004E0036823F0E3
S3150800099001031B041B0C0360002303604360836090
S315080009A0C3601F4B984205D11E4A536843F00F0394
S315080009B0536070471C4B984205D11A4A536843F056
S315080009C0F00353607047194B984205D1154A53688E
S315080009D043F4706353607047154B984205D1114A2A
S315080009E0536843F4704353607047124B984205D1DD
S315080009F00C4A536843F47023536070470E4B984271
S31508000A0005D1084A536843F47003536070470B4B8B
S31508000A10984204D1034A536843F0706353607047A1
S31508000A2008600240006002401C60024030600240DC
S31508000A3044600240586002406C6002408060024098
S31508000A4010B4036823F4FF4323F070030C6A8A6822
S31508000A5014430A6914434A6914438A691443CA69E0
S31508000A6014434A6A14438A6A224313430360CB68D1
S31508000A7043600B6883604B68C3605DF8044B70473E
S31508000A800023036043608360C3600361436183613D
S31508000A90C361036243628362704700BF21B1036882
S31508000AA043F0010303607047036823F001031B0446
S31508000AB01B0C0360704700BF41607047406880B2F6
S31508000AC0704700BF1AB1036819430160704703688D
S31508000AD023EA01010160704710F0805F06BF044BEE
S31508000AE01B680023034214BF01200020704700BF83
S31508000AF00060024010F0805F04BF014B58607047E9
S31508000B000060024010F0805F06BF044B1B6800239C
S31508000B10034214BF01200020704700BF0060024056
S31508000B2010F0805F04BF014B5860704700600240B8
S31508000B30044B00221A605A609A60DA60024A5A61C7
S31508000B40704700BF00040140FFFF7F008379002B38
S31508000B5034D010B4204B1A68016822EA01021A60E0
S31508000B605A68016822EA01025A60027902F1804253
S31508000B7002F5823214680168214311609A68016897
S31508000B8022EA01029A60DA68016822EA0102DA605A
S31508000B904379102B09D1104B996802680A439A6069
S31508000BA0D96802680A43DA6013E003F1804303F563
S31508000BB08233196802680A431A600AE0037903F166
S31508000BC0804303F582331A68016822EA01021A6033
S31508000BD070475DF8044B704700040140002303602A
S31508000BE003710C2242718371704700BF024A136970
S31508000BF018431061704700BF00040140034B5B694E
S31508000C00184214BF01200020704700BF00040140AD
S31508000C10014B5861704700BF00040140054B1A6834
S31508000C205B69184204D0104214BF012000207047A7
S31508000C300020704700040140014B5861704700BF0F
S31508000C4000040140034A136823F0010318431060A7
S31508000C50704700BF003C024028B1064A136843F0BB
S31508000C60020313607047034A136823F002031360F4
S31508000C70704700BF003C024028B1064A136843F09B
S31508000C80040313607047034A136823F004031360D0
S31508000C90704700BF003C024028B1064A136843F07B
S31508000CA0080313607047034A136823F008031360A8
S31508000CB0704700BF003C0240024A536843F00203F3
S31508000CC053607047003C0240054B5B6813F0010F08
S31508000CD004D0034B034ADA60034ADA60704700BF60
S31508000CE0003C0240EFCDAB890504030208B5094B69
S31508000CF05B6813F0020F0BD0FFF7E6FF054B064AB9
S31508000D001A61A2F1F342A2F51922A2F6A9121A61F2
S31508000D1008BD00BF003C0240BFAE9D8C024A536826
S31508000D2043F0010353607047003C024028B1064A6D
S31508000D30536843F4807353607047034A536823F437
S31508000D4080735360704700BF003C024008B5094BEA
S31508000D505B6813F0040F0BD0FFF7B6FF054B064A86
S31508000D605A6102F1205202F5691202F65F425A618F
S31508000D7008BD00BF003C0240C8D9EAFB024A5368D6
S31508000D8043F0040353607047003C0240024A53682C
S31508000D9043F4802353607047003C0240024BD869F5
S31508000DA0C0F30750704700BF003C0240014B186A69
S31508000DB0704700BF003C0240034BD869C0B2AA384E
S31508000DC018BF0120704700BF003C0240024BD8699B
S31508000DD0C0F30340704700BF003C024021B1054AFA
S31508000DE05368184350607047024A536823EA000064
S31508000DF050607047003C0240034B9B69184214BF81
S31508000E0001200020704700BF003C0240014B98615A
S31508000E10704700BF003C02400D4B9B6913F0010F61
S31508000E2011D10B4B9B6913F4807F0ED1084B9B693C
S31508000E3023F4877323F001031B041B0C002B14BF38
S31508000E40032004207047012070470220704700BF26
S31508000E50003C024010B50446FFF7DEFF012808D122
S31508000E605CB1FFF7D9FF013C012802D1002CF8D16B
S31508000E7003E0002C08BF052010BD052010BD00BFEB
S31508000E8038B505464FF40040FFF7E4FF042816D1AD
S31508000E900B4C636843F400736360636843F00803AC
S31508000EA0636000232B604FF40040FFF7D3FF6368AD
S31508000EB023F008036360636823F40073636038BD36
S31508000EC0003C024038B504460D464FF40040FFF793
S31508000ED0C1FF042804D125604FF40040FFF7BAFF8C
S31508000EE038BD00BF10B504464FF40040FFF7B2FF07
S31508000EF0042804BF0023236010BD00BF38B504468C
S31508000F000D464FF40040FFF7A5FF042809D1054A0E
S31508000F10536823F48073536025604FF40040FFF74D
S31508000F2099FF38BD003C024038B504460D464FF4DB
S31508000F300040FFF78FFF04281DD10F4A536823F49A
S31508000F40807353602DB125704FF40040FFF782FF80
S31508000F5038BD24F003052B6804F00304E400FF22DF
S31508000F6002FA04F423EA04042846FFF7BBFF2846DE
S31508000F702146FFF7C3FF38BD003C024070B5054661
S31508000F800E464FF40040FFF765FF044604282AD1B1
S31508000F90164A536823F48073536036B12E804FF493
S31508000FA00040FFF757FF04461DE005F00303032B37
S31508000FB011D025F003052A68DB004FF6FF749C4024
S31508000FC022EA04042846FFF78DFF28462146FFF744
S31508000FD095FF044607E028460021FFF7A5FF681C91
S31508000FE00021FFF7A1FF204670BD00BF003C02406C
S31508000FF038B504460D464FF40040FFF72BFF04288A
S3150800100018D12DB125704FF40040FFF723FF38BDE6
S3150800101024F003052B6804F00304E400FF2202FA17
S3150800102004F423EA04042846FFF75CFF2846214611
S31508001030FFF764FF38BD00BF70B505460E464FF48E
S315080010400040FFF707FF0446042825D136B12E8055
S315080010504FF40040FFF7FEFE04461DE005F00303CB
S31508001060032B11D025F003052A68DB004FF6FF7421
S315080010709C4022EA04042846FFF734FF2846214606
S31508001080FFF73CFF044607E028460021FFF74CFF20
S31508001090681C0021FFF748FF204670BD38B5044696
S315080010A00D464FF40040FFF7D5FE042804D125600D
S315080010B04FF40040FFF7CEFE38BD00BF38B50446F2
S315080010C00D464FF40040FFF7C5FE042826D185B12A
S315080010D013498A68224392B2CB6843EA1444A4B2FD
S315080010E0D34342EA03428A60E34344EA0344CC60BA
S315080010F010E00B498B6823EA04039BB2CA68E443F1
S3150800110002EA1444DA4343EA02438B60E34344EABF
S315080011100344CC604FF40040FFF79CFE38BD00BF87
S315080011200000F81F10B504464FF40040FFF792FE82
S31508001130042805D1230483F47F031C43034B1C6056
S315080011404FF40040FFF786FE10BD00BF0000F81FF1
S31508001150F8B506460F4615460B4BDC694FF40040BA
S31508001160FFF778FE04280AD13D4346EA0500C4F392
S3150800117003440443E34344EA0344044B5C604FF4EA
S315080011800040FFF767FEF8BD003C02400000F81F6C
S3150800119038B504460A4BDD694FF40040FFF75AFE9E
S315080011A0042808D105F4E00544EA1544E34344EA73
S315080011B00344044B5C604FF40040FFF74BFE38BD18
S315080011C0003C02400000F81F08B5244B984208D19D
S315080011D00120014600F0DAFD0120002100F0D6FDCD
S315080011E008BD1F4B984208D10220012100F0CEFD10
S315080011F00220002100F0CAFD08BD1A4B984208D10A
S315080012000420012100F0C2FD0420002100F0BEFDEB
S3150800121008BD154B984208D10820012100F0B6FDFB
S315080012200820002100F0B2FD08BD104B984208D1F5
S315080012301020012100F0AAFD1020002100F0A6FDD3
S3150800124008BD0B4B984207D12020012100F09EFDD6
S315080012502020002100F09AFD08BD00BF00000240D2
S315080012600004024000080240000C02400010024040
S3150800127000140240F0B500220126032706FA02F3FD
S315080012800C681C409C4238D10368540007FA04F5E0
S31508001290ED432B400360036891F804E00EFA04FE60
S315080012A04EEA030303600B79013BDBB2012B17D827
S315080012B083681D40856085684B79A3402B4383600E
S315080012C083889BB21FFA82FE06FA0EF523EA050307
S315080012D0838085888B7903FA0EF32B439BB2838030
S315080012E0C36895B26D0007FA05F523EA0503C360DE
S315080012F0C568CB79A3402B43C3600132102ABDD100
S31508001300F0BD00BF4FF6FF730360002303714371FE
S315080013108371C371704700BF41F48033C361C161F3
S31508001320C361C369C3697047038A194214BF0120A0
S3150800133000207047008A80B2704700BF838A19422E
S3150800134014BF012000207047808A80B2704700BF12
S3150800135001837047418370470AB10183704741830F
S31508001360704700BF8182704710B401F007039B00E5
S31508001370C90800EB8100046A0F21994024EA01019B
S315080013800162016A9A40114301625DF8044B704795
S3150800139008B50C4B98420AD14FF40010012100F011
S315080013A011FD4FF40010002100F00CFD08BD4FF4AC
S315080013B08000012100F006FD4FF48000002100F0B6
S315080013C001FD08BD0054004070B584B004460D46C2
S315080013D0868826F03F063604360C684600F01AFC66
S315080013E002982E4BA3FB00239B0C99B20E43A680B2
S315080013F0228822F001021204120C22802A68284E42
S31508001400B24209D85200B0FBF2F292B2032A98BF50
S3150800141004220131218427E0EE884BF6FF718E42C3
S3150800142005D102EB4202B0FBF2F292B208E002EBFF
S31508001430820202EB8202B0FBF2F292B242F48042DE
S31508001440C2F30B0109B942F0010242F400424FF41B
S31508001450967103FB01F3134981FB0301DB17C3EB09
S31508001460A11301339BB22384A28323889BB243F042
S315080014700103238023889BB223F4816323F00201AE
S315080014806B89AA8813430B439BB223802A89AB89AD
S3150800149013439BB2238104B070BD00BF83DE1B4398
S315080014A0A0860100D34D621041F288330360002301
S315080014B083804BF6FF72C280038143814FF48043D9
S315080014C08381704729B103889BB243F001030380E7
S315080014D07047038823F001031B041B0C0380704725
S315080014E029B103889BB243F480730380704703884D
S315080014F023F480731B041B0C0380704729B10388EF
S315080015009BB243F4007303807047038823F4007387
S315080015101B041B0C0380704729B103889BB243F454
S31508001520806303807047038823F480631B041B0CC5
S315080015300380704783899BB201F0FE0123F0FE0306
S315080015400B438381704700BF29B183899BB243F05F
S31508001550010383817047838923F001031B041B0C55
S315080015608381704729B103889BB243F04003038007
S315080015707047038823F040031B041B0C0380704745
S3150800158039B103886FEA43436FEA53439BB203803A
S3150800159070470388C3F30E0303807047B1F5005FF5
S315080015A005D103889BB243F4005303807047038830
S315080015B023F400531B041B0C0380704729B10388CE
S315080015C09BB243F0100303807047038823F010038F
S315080015D01B041B0C0380704729B903889BB243F090
S315080015E0800303807047038823F080031B041B0CC9
S315080015F003807047B1F5804F06D0838B23F4804370
S315080016001B041B0C83837047838B9BB243F4804374
S315080016108383704712B141F0010101E001F0FE0138
S3150800162089B20182704700BF01827047008AC0B242
S31508001630704700BF29B103889BB243F480530380E7
S315080016407047038823F480531B041B0C03807047E0
S31508001650B1F5006F05D103889BB243F4006303809C
S315080016607047038823F400631B041B0C0380704730
S3150800167029B103889BB243F020030380704703888F
S3150800168023F020031B041B0C03807047008BC0F358
S315080016900720704729B183889BB243F4006383808F
S315080016A07047838823F400631B041B0C83807047F0
S315080016B029B183889BB243F480538380704783881B
S315080016C023F480531B041B0C8380704782B00023CD
S315080016D001930190019B19440191019B188880B2DE
S315080016E002B0704722B183889BB219438180704744
S315080016F083889BB223EA01018180704710B4838AEC
S315080017009AB2038B21F07F4442EA034304EA0300BA
S31508001710814214BF002001205DF8044B704700BFCA
S31508001720838A9BB2008B43EA004020F07F407047D3
S3150800173082B000230193009300900B0F019321F0D0
S315080017407F41019B1BB1009B1433009303E0090CF6
S31508001750009B18330093009B1B68194214BF012095
S31508001760002002B0704700BFC94389B28182704722
S3150800177083889AB2838A9BB20B4207D001F0E06154
S3150800178012EA114314BF0120002070470020704759
S31508001790C94389B281827047014B1860704700BF00
S315080017A000300040014B5860704700BF00300040D1
S315080017B0014B9860704700BF003000404AF6AA22E5
S315080017C0014B1A60704700BF003000404CF6CC420F
S315080017D0014B1A60704700BF00300040034BDB68BE
S315080017E0184214BF01200020704700BF0030004097
S315080017F008B54FF40070012100F0E4FA4FF40070C8
S31508001800002100F0DFFA08BD00230360436083600F
S31508001810C3600361704700BF014B1860704700BF83
S3150800182000800442024A936813F0200FFBD07047E9
S315080018300024004038B505460C4C636823F07F73D6
S315080018406360626803681A43436813436360FFF77B
S31508001850E9FF236823F07E0323602268AB681A43F6
S31508001860EB681A432B691343236038BD00240040F4
S31508001870014B1860704700BF80800442014B186016
S31508001880704700BF1C800442044B5A6822F070025D
S315080018905A605A6810435860704700BF00240040D9
S315080018A0044B5A6822F460725A605A6810435860AA
S315080018B0704700BF00240040044A536823F4783375
S315080018C0536053681943084350607047002400402A
S315080018D0044B5A6822F4E0525A605A68104358601A
S315080018E0704700BF002400408000014B1950704724
S315080018F0142400400122014B1A60704708810442F3
S3150800190021B1054A5368184350607047024A536824
S3150800191023EA00005060704700240040034B9B6890
S31508001920184214BF01200020704700BF0024004061
S31508001930014BD860704700BF00240040054B9A68E9
S315080019405B68184204D0104214BF0120002070477B
S315080019500020704700240040014BD860704700BF44
S315080019600024004008B54FF08050012100F02AFA03
S315080019704FF08050002100F025FA08BD014B186091
S31508001980704700BF20000E42034A136823F0E003A5
S3150800199018431060704700BF00700040014B186084
S315080019A0704700BF10000E4282B000230193034B1C
S315080019B003440193019B196002B07047A0000E42D0
S315080019C0014B1860704700BF28000E42014B186093
S315080019D0704700BF24000E42044A136823F4C0531C
S315080019E0184320F00C001060704700BF00700040DC
S315080019F048B10A4B1A6842F001021A601A6842F4A2
S31508001A0080421A607047054B1A6822F480421A60B1
S31508001A101A6822F001021A60704700BF0070004081
S31508001A20084A136823F0030318431060064A13692B
S31508001A3023F004031361012901D130BF704720BF89
S31508001A40704700BF0070004000ED00E00A4A1368C6
S31508001A5023F0030318431060084A136943F004038C
S31508001A601361012901D130BF00E020BF034A136981
S31508001A7023F00403136170470070004000ED00E096
S31508001A80074B1A6842F004021A601A6842F002020A
S31508001A901A60044A136943F00403136130BF7047A0
S31508001AA00070004000ED00E0034B5B68184214BF6D
S31508001AB001200020704700BF00700040024A1368EA
S31508001AC043EA800010607047007000400C4B1A68AB
S31508001AD042F480721A6099680A4A0A409A601A683B
S31508001AE022F0885222F001121A601A6822F4802223
S31508001AF01A609A6822F47D029A600022DA607047BA
S31508001B00003802400CC0FF88024B00221A70187079
S31508001B10704700BF02380240014B1870704700BF7B
S31508001B2007380240034A536823F460431843506059
S31508001B30704700BF00380240014B1860704700BF6D
S31508001B4020004742034A536823F4F85343EA002027
S31508001B505060704700380240014B1860704700BF5C
S31508001B6000004742024B00221A701870704700BFE7
S31508001B7035380240014B1860704700BF800647425F
S31508001B8002431143014B1970704700BF0A380240DF
S31508001B90014B1860704700BF60004742014B186050
S31508001BA0704700BF700047420143014B19707047E8
S31508001BB00B380240034A936823F0030318439060E6
S31508001BC0704700BF00380240024B986800F00C00CE
S31508001BD0704700BF00380240034A936823F0F003B9
S31508001BE018439060704700BF00380240034A936864
S31508001BF023F4E06318439060704700BF0038024042
S31508001C00034A936823F4605343EAC0009060704720
S31508001C100038024010B4304B9B6803F00C030C2BC1
S31508001C2030D8DFE803F0072F2F2F122F2F2F152F6D
S31508001C302F2F1800284B5B68C3F3423301334FF448
S31508001C40004202FA03F3036026E0244B036023E014
S31508001C50234B036020E020498A688B68C2F38342DD
S31508001C60204CA25CD2B2C3F381530133896811F4C4
S31508001C70803F0CBF19491A4901FB02F2B2FBF3F384
S31508001C80036009E0144B5B68C3F3423301334FF436
S31508001C90004202FA03F303600F4A9368C3F303137F
S31508001CA0104C2344197BC9B20368CB404360916842
S31508001CB0C1F302212144097BC9B223FA01F18160EB
S31508001CC09268C2F3C2222244127BD2B2D340C360C6
S31508001CD05DF8044B704700BF003802400024F4004A
S31508001CE040787D019001002010B400F44034B4F52A
S31508001CF0403F07D1094A136823F0C04300F0C040AB
S31508001D0018431060054B596B21F4403159635A6BDF
S31508001D1022435A635DF8044B704700BF00380240FF
S31508001D20014B1860704700BFD8064742014B186040
S31508001D30704700BFDC06474221B1054AD3691843FC
S31508001D40D0617047024AD36923EA0000D061704720
S31508001D500038024021B1054A136A184310627047D9
S31508001D60024A136A23EA00001062704700380240EC
S31508001D7021B1054A536A184350627047024A536AAA
S31508001D8023EA0000506270470038024021B1054A34
S31508001D901369184310617047024A136923EA000061
S31508001DA0106170470038024021B1054A536918434B
S31508001DB050617047024A536923EA00005061704730
S31508001DC00038024021B1054A93691843906170476B
S31508001DD0024A936923EA000090617047003802407E
S31508001DE021B1054A936A184390627047024A936A7A
S31508001DF023EA0000906270470038024021B1054A84
S31508001E00D36A1843D0627047024AD36A23EA0000AD
S31508001E10D06270470038024021B1054A136B184357
S31508001E2010637047024A136B23EA00001063704779
S31508001E300038024021B1054B1A78104318707047D4
S31508001E40024A137823EA0000107070470D380240E2
S31508001E504309012B064B0CBF1A685A6B00F01F008A
S31508001E60012383401A4214BF01200020704700BF97
S31508001E700038024010B582B0002301933124204671
S31508001E80FFF7E6FF019B01330193019BB3F5A06FB2
S31508001E9001D00028F3D03120FFF7DAFF003018BF51
S31508001EA0012002B010BD00BF024A536B43F0807395
S31508001EB05363704700380240034BDB68184214BF6F
S31508001EC001200020704700BF00380240014B1870FF
S31508001ED0704700BF0E380240092807D9002301338E
S31508001EE0DBB20A38C0B20928F9D800E0002340EA74
S31508001EF00310C0B2704700BF030903EB830300F069
S31508001F000F0000EB4300C0B2704700BF0023036018
S31508001F107F234360FF238360704700BF18B1FF2209
S31508001F20044B5A627047034BCA225A6253225A62BA
S31508001F30704700BF0028004082B0002301930F4B72
S31508001F40DB6813F0400F15D14FF0FF320B4BDA6008
S31508001F501946CB6803F04002019B01330193019BAC
S31508001F60B3F5005F01D0002AF3D0044BD868C0F35C
S31508001F70801000E0012002B0704700BF0028004032
S31508001F80024AD36823F08003D360704700280040D4
S31508001F9010B50446104BCA225A6253225A62FFF7FA
S31508001FA0CBFF98B10C4B9A6822F040029A60996868
S31508001FB022680A439A60A2681A611A69616842EA45
S31508001FC001421A61FFF7DCFF012000E00020FF2232
S31508001FD0014B5A6210BD00BF0028004082B00023A2
S31508001FE001930F4BCA225A6253225A62DA6822F0C8
S31508001FF0A002DA601946CB6803F02002019B013380
S315080020000193019BB3F5805F01D0002AF3D0044BFE
S31508002010D868FF225A62C0F3401002B0704700BF6A
S315080020200028004000B583B000230193204BCA2244
S315080020305A6253225A62FFF77FFF00282FD01C4BA3
S3150800204000221A6042F201125A609A6802F00702E8
S315080020509A601946CB6803F00402019B0133019389
S31508002060019BB3F5005F01D0002AF3D0104BDB6863
S3150800207013F0040F15D00E4B9A6800229A604FF69B
S31508002080FF7159610B4919619A61DA611A62DA605E
S315080020901A64FFF7A3FF003018BF012002E00020F2
S315080020A000E00020FF22024B5A6203B05DF804FBF1
S315080020B000280040FF007F0010B504460E4BCA22D8
S315080020C05A6253225A62FFF737FF78B12CB10A4A8F
S315080020D0936843F01003936004E0074A936823F07B
S315080020E010039360FFF74CFF012000E00020FF2259
S315080020F0014B5A6210BD00BF0028004070B50D465E
S3150800210038B9254B9B6813F0400F2DD10023CB70AF
S315080021102AE0214B9B6813F0400F1AD10023CB709D
S3150800212017E01D4BCA225A6253225A62FFF704FF70
S3150800213068B104F07F3020F0FE40174B1860FFF7B7
S315080021401FFFFFF74BFF003018BF01201FE00020DC
S315080021501DE02C786B781B0243EA0444AB782343D2
S31508002160E87843EA0044DCE72878FFF7B5FE04463A
S315080021706878FFF7B1FE0646A878FFF7ADFEEB785C
S3150800218040EA034040EA044343EA0624C9E7FF223B
S31508002190014B5A6270BD00BF002800400023C3707F
S315080021A0037043708370704770B50F4B1B68C3F399
S315080021B005420A70C3F306264E7003F07F058D703C
S315080021C003F480031B0CCB7060B90C461046FFF76E
S315080021D093FE20703046FFF78FFE60702846FFF7A3
S315080021E08BFEA07070BD00BF0028004070B50D467C
S315080021F0002833D14B6813F0100F1CD023F01003BE
S315080022000A334B6017E01D4BCA225A6253225A62A0
S31508002210FFF792FE68B124F07F4020F0C000174B0C
S315080022205860FFF7ADFEFFF7D9FE003018BF012052
S315080022301FE000201DE0687AFFF74EFE0446287965
S31508002240FFF74AFE0646287AFFF746FE2B6840EA5D
S31508002250433040EA044343EA0624D4E70B7A4C6841
S3150800226043EA04230C6843EA4433487A43EA0044C1
S31508002270C9E7FF22014B5A6270BD00BF0028004023
S31508002280012303600372436000234372704700BF53
S3150800229070B50E4B5B68C3F307424A72C3F3042654
S315080022A04E6003F03F050D72C3F342330B6060B90D
S315080022B00C461046FFF720FE60723046FFF71CFEFC
S315080022C060602846FFF718FE207270BD002800409F
S315080022D02DE9F0410D46164638B9274B9B6813F091
S315080022E0400F2CD10023D37029E0234B9B6813F0B1
S315080022F0400F12D10023D3700FE01F4BCA225A6237
S3150800230053225A62B5F5807F0EBFD8611A4B186200
S31508002310FF22194B5A62BDE8F0817268B36813430D
S31508002320B1780B43307843EA0043707843EA0023D8
S31508002330F07843EA0043307B43EA0060DDE7307813
S31508002340FFF7CAFD80467078FFF7C6FD0746B078E6
S31508002350FFF7C2FD0446307BFFF7BEFD7268B3681F
S315080023601343F27843EA0243234343EA084444EA20
S31508002370072444EA0060C0E7002800400023C37031
S315080023800370437083708360012202734360704751
S31508002390F8B5B1F5807F174B0CBFDB691B6AC3F331
S315080023A0054E82F800E0C3F30626567003F07F0553
S315080023B0957003F48001090CD170C3F30567177390
S315080023C003F08041916003F08033536080B914466E
S315080023D07046FFF791FD20703046FFF78DFD60705F
S315080023E02846FFF789FDA0703846FFF785FD20735C
S315080023F0F8BD00BF0028004082B000230193154BAA
S31508002400CA225A6253225A6229B11A469B6818434D
S315080024109060012018E00F4A936823EA000393604E
S31508002420000A1146CB6800EA0302019B01330193B7
S31508002430019BB3F5005F01D0002AF3D0054BDB689A
S31508002440184214BF01200020FF22024B5A6202B034
S31508002450704700BF00280040074BCA225A62532221
S315080024605A629A6822F007029A609A68104398603E
S31508002470FF225A62704700BF00280040044BCA2258
S315080024805A6253225A625861FF225A62704700BF45
S3150800249000280040014B586980B270470028004068
S315080024A082B000230193144BCA225A6253225A62FD
S315080024B030B11A469B6843F480639360012015E0A7
S315080024C00D4A936823F4806393601146CB6803F042
S315080024D00402019B01330193019BB3F5005F01D010
S315080024E0002AF3D0044BD868C0F38000FF22024BC1
S315080024F05A6202B0704700BF00280040074BCA2244
S315080025005A6253225A629A6822F480229A609A681A
S31508002510114308439860FF225A627047002800401A
S31508002520024B986800F48020704700BF00280040DE
S31508002530074BCA225A6253225A629A6822F4E00268
S315080025409A609A68114308439860FF225A62704756
S315080025500028004038B505460C460A4BCA225A627E
S3150800256053225A62FFF7E8FC30B12C43054B9C61B5
S31508002570FFF706FD012000E00020FF22014B5A620A
S3150800258038BD00BF0028004010B504460E4BCA22CD
S315080025905A6253225A62FFF7CFFC78B12CB10A4A25
S315080025A0936843F08003936004E0074A936823F036
S315080025B080039360FFF7E4FC012000E00020FF227F
S315080025C0014B5A6210BD00BF002800400A4BCA22C0
S315080025D05A6253225A6228B11A469B6843F400038A
S315080025E0936004E0044A936823F400039360FF228F
S315080025F0014B5A62704700BF002800400A4B9B688F
S3150800260023F4006323F0080319B143F4006303437A
S3150800261000E00343044ACA21516253215162936080
S31508002620FF235362704700BF0028004038B51B4C93
S31508002630236B646BC3F305450D70C3F306254D7014
S3150800264003F07F058D7003F480031B0CCB70002309
S315080026505372C4F30423536004F03F031372C4F3A4
S3150800266042341460C8B914460D460878FFF744FC8E
S3150800267028706878FFF740FC6870A878FFF73CFC7C
S31508002680A8702079FFF738FC6060207AFFF734FCE1
S3150800269020722078FFF730FC206038BD0028004003
S315080026A029B9064A136C23EA400010647047034AA6
S315080026B0136C43EA40001064704700BF00280040CE
S315080026C021B1054A136C184310647047024A136C0B
S315080026D023EA0000106470470028004082B00023F7
S315080026E00193054B0193019B03EB80000190019B2D
S315080026F0196002B0704700BF5028004082B000231E
S315080027000193054B0193019B03EB80000190019B0C
S31508002710186802B0704700BF50280040044B1A6C76
S3150800272022F480221A641A6C10431864704700BF9A
S3150800273000280040104BCA225A6253225A6251B1ED
S315080027409A6820F004010A439A601A6C00F00400A3
S31508002750104318640CE0084B9A6820F0040122EA3A
S3150800276001029A601A6C00F0040022EA000018645C
S31508002770FF22014B5A62704700280040054BDB6870
S3150800278023F088039B049B0C034214BF01200020FE
S31508002790704700BF00280040054AD36880B240F061
S315080027A0800003F0800363EA0003D360704700BF2C
S315080027B00028004009490B6C8A68C96803F00403BD
S315080027C003EAD0330240134306D089B211EA101344
S315080027D014BF0120002070470020704700280040E1
S315080027E0054AD368C0F30F1040F0800003F0800359
S315080027F063EA0003D36070470028004008B50E4B13
S3150800280098420AD14FF480500121FFF7CDFA4FF4D0
S3150800281080500021FFF7C8FA08BD084B984209D135
S315080028204FF480400121FFF7CDFA4FF48040002194
S31508002830FFF7C8FA08BD00BF003001400038004065
S3150800284010B4038803F441544A880B8813438A88D2
S315080028501343CA8813430A8913434A8913438A8947
S315080028601343CA89134323439BB203800B8A03820B
S315080028705DF8044B704700BF0023038043808380C4
S31508002880C380038143818381C38107230382704701
S3150800289029B103889BB243F040030380704703883D
S315080028A023F040031B041B0C03807047038823F4A2
S315080028B000631B041B0C038003889BB21943018029
S315080028C0704700BFB1F5804F05D103889BB243F42A
S315080028D0804303807047038823F480431B041B0C42
S315080028E0038070474FF6FF63994205D003889BB271
S315080028F043F4807303807047038823F480731B04B2
S315080029001B0C0380704700BF29B183889BB243F034
S31508002910040383807047838823F004031B041B0C7D
S3150800292083807047808980B2704700BF8181704775
S3150800293029B103889BB243F4005303807047038888
S3150800294023F400531B041B0C0380704703889BB2B7
S3150800295043F4805303807047012914BF008B808A93
S3150800296080B27047008A80B2704700BF22B1838860
S315080029709BB219438180704783889BB223EA010181
S3150800298081807047090901238B409BB222B1828856
S3150800299092B2134383807047828892B222EA030375
S315080029A0838070470389194214BF012000207047AD
S315080029B0C94389B20181704710B483889CB20289E1
S315080029C092B201F00F00012383401A4207D0090989
S315080029D001238B401C4214BF0120002000E0002088
S315080029E05DF8044B704700BF01F00F0101238B40CF
S315080029F0DB439BB20381704708B501200146FFF708
S31508002A00D3F901200021FFF7CFF908BD044B0022B6
S31508002A101A605A609A60DA601A615A61704700BF94
S31508002A20047C0040014B1860704700BF000001405D
S31508002A3028B1064A536843F0010353607047034AB6
S31508002A40536823F001035360704700BF000001403C
S31508002A5010B401F003039B0001F0FC0101F1804171
S31508002A6001F580318C680F229A4024EA02028A60B6
S31508002A708A68984002438A605DF8044B704700BF35
S31508002A80034A136823F4403318431060704700BFA5
S31508002A90047C0040104B1B68034310F4802F1CBFB6
S31508002AA023F00F030B4310F4002F1CBF23F0F00391
S31508002AB043EA011310F4801F1CBF23F4706343EA32
S31508002AC0012310F4001F1CBF23F4704343EA0133AB
S31508002AD0014A1360704700BF047C004021B1054AD3
S31508002AE01368184310607047024A136823EA000007
S31508002AF010607047007C0040C30F20F0004051B1C1
S31508002B0023B10B4A5368184350607047084A9368C4
S31508002B101843906070472BB1054A536823EA0000B2
S31508002B2050607047024A936823EA00009060704735
S31508002B30047C004028B1064A536843F000435360BA
S31508002B407047034A536823F000435360704700BF39
S31508002B50047C004001280BD12AB1224AD36823EA13
S31508002B600101D16070471F4AD3681943D160704785
S31508002B7002280DD132B11B4AD368C94303EA014181
S31508002B80D1607047174AD36843EA0141D16070475C
S31508002B9003280BD12AB1134A136923EA01011161EB
S31508002BA07047104A136919431161704704280DD1FB
S31508002BB032B10C4A1369C94303EA014111617047EE
S31508002BC0084A136943EA0141116170472AB1054A67
S31508002BD0536923EA010151617047024A536919434F
S31508002BE051617047047C004030B4048C24F0010421
S31508002BF02404240C0484048BA4B2058CADB224F0FE
S31508002C00F304224342EA03139AB225F00A0545F073
S31508002C10010529430283018430BC704730B4048C13
S31508002C2024F010042404240C0484058B048CA4B218
S31508002C3025F440752D052D0D45EA022242EA033397
S31508002C409BB224F0A00444F0100444EA01118CB2AB
S31508002C500383048430BC704708B5B0F1804F08D1AF
S31508002C6001200146FFF7AEF801200021FFF7AAF878
S31508002C7008BD2A4B984208D102200121FFF7A2F885
S31508002C8002200021FFF79EF808BD254B984208D17F
S31508002C9004200121FFF796F804200021FFF792F897
S31508002CA008BD204B984208D110200121FFF78AF869
S31508002CB010200021FFF786F808BD1B4B984208D163
S31508002CC020200121FFF77EF820200021FFF77AF85F
S31508002CD008BD164B984208D104200121FFF764F875
S31508002CE004200021FFF760F808BD114B984208D16F
S31508002CF008200121FFF758F808200021FFF754F8AB
S31508002D0008BD0C4B984207D110200121FFF74CF85B
S31508002D1010200021FFF748F808BD00BF0004004056
S31508002D200008004000100040001400400008014060
S31508002D30000C01400010014003889BB2B0F1804F9F
S31508002D4006D00F4A904203D002F58062904203D122
S31508002D5023F070034A8813430A4A904208D002F5C2
S31508002D608062904204D023F440739BB2CA8813430E
S31508002D7003808B8883850B880385012383827047AC
S31508002D8000040040001000404FF6FF7383800023C4
S31508002D900380C3804380704701858282704700BFE5
S31508002DA0038823F070031B041B0C1943018070472A
S31508002DB089B28184704700BF89B28185704700BF98
S31508002DC0808C80B2704700BF008D80B2704700BF0C
S31508002DD029B103889BB243F0020303807047038836
S31508002DE023F002031B041B0C0380704729B10388D8
S31508002DF09BB243F0040303807047038823F004035F
S31508002E001B041B0C0380704729B103889BB243F04F
S31508002E10800303807047038823F080031B041B0C80
S31508002E2003807047038823F008031B041B0C0380E8
S31508002E3003889BB219430180704700BF038823F4B7
S31508002E4040731B041B0C038003889BB21943018043
S31508002E50704700BF29B103889BB243F00103038082
S31508002E607047038823F001031B041B0C038070477B
S31508002E7030B4038C23F001031B041B0C0384038C5E
S31508002E80028B22F073021204120C0D88154323F0EC
S31508002E9002042404240C4B88CA88134323439BB298
S31508002EA08A8882860583038430BC704710B4038CF5
S31508002EB023F010031B041B0C0384038C028B22F4DF
S31508002EC0E0421204120C0C8842EA042292B223F061
S31508002ED020031B041B0CCC8843EA04134C8843EAE2
S31508002EE004139BB289880187028303845DF8044B27
S31508002EF0704700BF10B4038C23F480731B041B0CAB
S31508002F000384038C828B22F070021204120C0C8844
S31508002F10224323F400731B041B0CCC8843EA0423C6
S31508002F204C8843EA04239BB2898881878283038479
S31508002F305DF8044B704700BF10B4038C23F480532C
S31508002F401B041B0C0384038C828B22F4E0421204BC
S31508002F50120C0C8842EA042292B223F400531B0492
S31508002F601B0CCC8843EA04334C8843EA04339BB2EF
S31508002F708988A0F84010828303845DF8044B704763
S31508002F800023038043808380C380704730B400F1F8
S31508002F901805038C9CB201238B4024EA030303849F
S31508002FA021F008039BB243B949086B5823F0700314
S31508002FB06B506B581A436A500BE00439C1F34E0143
S31508002FC04B5923F4E0434B514B59120292B21A4320
S31508002FD04A5130BC704700BF89B28186704700BF2E
S31508002FE089B20187704700BF89B28187704700BFE1
S31508002FF089B2A0F840107047038B23F070031B04B6
S315080030001B0C194301837047038B23F4E0431B040D
S315080030101B0C43EA012189B201837047838B23F095
S3150800302070031B041B0C194381837047838B23F49D
S31508003030E0431B041B0C43EA012189B281837047D4
S31508003040038B23F008031B041B0C194301837047E9
S31508003050038B23F400631B041B0C43EA012189B28A
S3150800306001837047838B23F008031B041B0C194349
S3150800307081837047838B23F400631B041B0C43EA8C
S31508003080012189B281837047038B23F004031B0453
S315080030901B0C194301837047038B23F480631B04BD
S315080030A01B0C43EA012189B201837047838B23F005
S315080030B004031B041B0C194381837047838B23F479
S315080030C080631B041B0C43EA012189B28183704784
S315080030D0038B23F080031B041B0C194301837047E1
S315080030E0038BC3F30E0343EA012189B201837047B8
S315080030F0838B23F080031B041B0C194381837047C1
S31508003100838BC3F30E0343EA012189B28183704797
S31508003110038C23F002031B041B0C1943018470471C
S31508003120038C23F020031B041B0C43EA011189B20C
S3150800313001847047038C23F400731B041B0C43EAB9
S31508003140012189B201847047038C23F400531B04C0
S315080031501B0C43EA013189B201847047038923F0C5
S3150800316008031B041B0C038103899BB219430181C5
S31508003170704700BF10B4038C9CB201238B4024EA2D
S3150800318003030384038C8A4013439BB203845DF8CC
S31508003190044B704700230380438001228280C3804A
S315080031A003817047808E80B2704700BF008F80B25F
S315080031B0704700BF808F80B2704700BFB0F84000EC
S315080031C080B27047038B23F00C031B041B0C03838C
S315080031D0038B9BB219430183704700BF038B23F40B
S315080031E040631B041B0C0383038B9BB243EA012138
S315080031F089B20183704700BFF8B505460C46498871
S3150800320000290CBF02270027A388012B0CBF022622
S315080032100126228892B91A462389FFF7E5FC284633
S31508003220E188FFF7CFFF2846394632462389FFF75C
S31508003230F5FC2846E188FFF7D1FFF8BD1A46238931
S31508003240FFF7ECFC2846E188FFF7C8FF2846394611
S3150800325032462389FFF7C8FC2846E188FFF7B2FF04
S31508003260F8BD00BF838B23F00C031B041B0C838360
S31508003270838B9BB219438183704700BF838B23F4EA
S3150800328040631B041B0C8383838B9BB243EA012197
S3150800329089B28183704700BF70B504460D460B8816
S315080032A04BB94988AA882B89FFF79EFC2046E988EE
S315080032B0FFF788FF70BD042B09D14988AA882B8996
S315080032C0FFF7ACFC2046E988FFF788FF70BD082B9E
S315080032D020D148888E880A89218C21F480710904B6
S315080032E0090C2184A18B89B2238C9BB221F0F301AE
S315080032F041EA021292B2324323F4206343EA0023DE
S315080033009BB243F48073A28323842046E988FFF79F
S31508003310A9FF70BD48888A880E89218C21F48051BE
S315080033200904090C2184A18B238C21F44071090519
S31508003330090D41EA022242EA063292B223F4005308
S315080033405B045B0C43EA00339BB243F48053A283CD
S3150800335023842046E988FFF791FF70BD22B183894F
S315080033609BB219438181704783899BB223EA010185
S315080033708181704781827047038A194214BF0120F0
S3150800338000207047C94389B201827047028A83893F
S315080033909BB2114204D0194214BF01200020704785
S315080033A000207047C94389B2018270470A43A0F8D2
S315080033B04820704722B183899BB21943818170479F
S315080033C083899BB223EA01018181704729B18388E9
S315080033D09BB243F0080383807047838823F0080371
S315080033E01B041B0C83807047038923F007031B0407
S315080033F01B0C0381704700BF038923F070031B046D
S315080034001B0C1943018103899BB243F0070303810F
S31508003410704700BF38B504460D46602904D11146E9
S315080034200122FFF7FBFB03E011460122FFF7DCFB55
S31508003430228922F070031B041B0C2B43238123894A
S315080034409BB243F00703238138BD00BF038923F0ED
S3150800345070031B041B0C194301817047838823F0F2
S3150800346070031B041B0C838083889BB219438180DD
S31508003470704700BF038923F007031B041B0C038155
S3150800348003899BB219430181704700BF038923F062
S3150800349080031B041B0C038103899BB2194301811A
S315080034A0704700BF10B40489E4B221430A4342EAD4
S315080034B0032399B201815DF8044B704710B50446A1
S315080034C0FFF7F0FF238923F077031B041B0C43F057
S315080034D07703238110BD00BF10B50446FFF7E2FF4E
S315080034E023899BB243F48043238110BD70B40689B7
S315080034F0058BADB2048CA4B226F007063604360C4A
S31508003500314325F4407525F0030545F4807545F0EB
S31508003510010524F02204224342EA03139CB20181E6
S315080035200583048470BC704729B183889BB243F035
S31508003530800383807047838823F080031B041B0C59
S3150800354083807047A0F85010704700BF08B5154B28
S3150800355098420AD14FF480400121FEF725FC4FF42A
S3150800356080400021FEF720FC08BD0F4B98420AD187
S315080035704FF400300121FEF725FC4FF400300021FE
S31508003580FEF720FC08BD094B984209D14FF480206C
S315080035900121FEF717FC4FF480200021FEF712FCEC
S315080035A008BD00BF00380140004400400048004004
S315080035B030B585B004460D46038A9BB223F44053C2
S315080035C0CA881343038283899BB223F4B05323F03A
S315080035D00C020989AB880B4369890B439BB21343D9
S315080035E08381838A9BB223F44073AA891343838217
S315080035F06846FEF70FFB1A4B9C420CBF039B029BC7
S31508003600A28912B2002A03EB830303EB830329681A
S31508003610B4BF49008900B3FBF1F1124BA3FB0123A8
S3150800362058090501642300FB1313A28912B2002A64
S3150800363009DAD90032310B4AA2FB0131C1F3421231
S3150800364042EA050307E01B013233064AA2FB0323BD
S31508003650C3F343132B439BB2238105B030BD00BF90
S31508003660003801401F85EB514FF4165303600023C1
S315080036708380C38003810C2242818381704700BF07
S3150800368010B4038A9BB223F470624C880B882343D8
S315080036908C882343C9880B439BB2134303825DF886
S315080036A0044B70470023038043808380C3807047A0
S315080036B029B183899BB243F4005383817047838978
S315080036C023F400531B041B0C83817047038B03F4FC
S315080036D07F430383038B9BB219430183704700BF63
S315080036E039B183896FEA43436FEA53439BB28381B7
S315080036F070478389C3F30E038381704729B1838A90
S315080037009BB243F4006383827047838A23F4006381
S315080037101B041B0C83827047C1F308018180704724
S315080037208088C0F308007047038A23F00F031B0440
S315080037301B0C0382038A9BB219430182704700BFA0
S3150800374029B183899BB243F0020383817047838939
S3150800375023F002031B041B0C83817047838923F41F
S3150800376000631B041B0C838183899BB219438181E7
S31508003770704700BF038A23F020031B041B0C038237
S31508003780038A9BB219430182704700BF29B1038A95
S315080037909BB243F4804303827047038A23F4804331
S315080037A01B041B0C0382704783899BB243F00103F9
S315080037B08381704729B1838A9BB243F008038382C9
S315080037C07047838A23F008031B041B0C8382704707
S315080037D0038BDBB20383038B9BB243EA012101838C
S315080037E0704700BF29B1838A9BB243F020038382C6
S315080037F07047838A23F020031B041B0C83827047BF
S3150800380029B1838A9BB243F0100383827047838A67
S3150800381023F010031B041B0C83827047838A23F052
S3150800382004031B041B0C8382838A9BB2194381827F
S31508003830704700BF29B1838A9BB243F00203838293
S315080038407047838A23F002031B041B0C838270478C
S3150800385022B1838A9BB2194381827047838A9BB2BD
S3150800386023EA01018182704710B4C1F3421401F0C2
S315080038701F0101238B40012C01D10C3003E0022CDF
S315080038800CBF103014301AB102681343036003E00A
S31508003890026822EA030303605DF8044B704700BF21
S315080038A00388194214BF012000207047C94389B212
S315080038B00180704710B4C1F3421201F01F040123BE
S315080038C0A340012A03D1828992B2134005E0022A55
S315080038D00CBF028A828A92B21340028892B23BB126
S315080038E0090A01238B40134214BF0120002000E07F
S315080038F000205DF8044B7047090A01238B40DB431F
S315080039009BB20380704700BF08B54FF400600121E1
S31508003910FEF758FA4FF400600021FEF753FA08BD87
S31508003920034A536823F4C07318435060704700BFB6
S31508003930002C004082B000230193074A536823F005
S315080039407F030193019B00F07F0003430193019BD2
S31508003950536002B0704700BF002C00400122014BA3
S315080039601A607047A480054200F07F00014B18607A
S31508003970704700BF002C004040F08000014B1860E3
S31508003980704700BF002C0040024B9868003018BFF3
S3150800399001207047002C00400022014B9A607047B6
S315080039A0002C004010B582B04FF460430093012309
S315080039B08DF804308DF806308DF805308DF807300F
S315080039C0084C20466946FDF755FC4FF4F85300931A
S315080039D000238DF8043020466946FDF74BFC02B0FB
S315080039E010BD00BF00100240F8B500241A4D4FF470
S315080039F07F47012628463946FDF7AAFC04F10D0340
S31508003A0006FA03F1284689B2FDF7A4FC022007F05E
S31508003A100DF92846FDF78EFC00F4F85090F4F8539B
S31508003A2005D10134032CE5D14FF0FF30F8BDB3F5CD
S31508003A30806F08D0B3F5006F08D0B3F5805F08BF74
S31508003A404FF4A06304E04FF4407301E04FF4806341
S31508003A5004EBA310F8BD00BF0010024038B5594B5F
S31508003A601A68594B1B680233934200F2A980554BDA
S31508003A701A68564B1B680233934200F2A180022053
S31508003A8005F022FD20B1FFF7AFFF041E6DDB00E055
S31508003A900F244F4B1B68B3F1FF3F31D14C4D2C60BF
S31508003AA04C4B18784C4904F08DF82C4421790920A0
S31508003AB001F00F0105F052F90446484B1B683BB16B
S31508003AC0404A1268C3EB031302EB8303444A1360AC
S31508003AD0444B1B6873B13B4A12683C32934209D285
S31508003AE03C4B1878404904F06DF8364B1B683C335C
S31508003AF03C4A136040F22620322100F0D7F950E004
S31508003B009C4210D0324C2344197901F00F01092048
S31508003B1041F0100105F022F94FF0FF33236000222F
S31508003B20324B1A6048E0314B1B68072B03DC013324
S31508003B302E4A136040E0264B1C4422790123934009
S31508003B402B4909680B4237D002F00F01092041F0D2
S31508003B50200105F003F9044640F22620142100F05E
S31508003B60A5F90122214B1A601BE0194B1B68B3F11A
S31508003B70FF3F21D040F2EE20142100F097F9144DB2
S31508003B802B682B44197901F00F01092041F0100127
S31508003B9005F0E4F804464FF0FF332B600022134B80
S31508003BA01A60B4F1FF3F07D16420282100F07EF99E
S31508003BB0092005F011F838BD024B1A680B4B5A60FC
S31508003BC038BD00BFAC1400206C040020800400201F
S31508003BD0AC01002074020020F8EA0008000B00205F
S31508003BE0FC0A00204804002000EB0008B40300206B
S31508003BF02805002010B582B080B1042000908DF809
S31508003C0004000C238DF8053001238DF80630FDF7E6
S31508003C1013F800200221FEF71BFF0FE00420009096
S31508003C208DF804000C228DF8052000248DF8064036
S31508003C30FDF702F820460221FEF70AFF6846FCF760
S31508003C4085FF02B010BD00BF08B5FFF7ABFE022026
S31508003C50052105F021FB4FF40C42104B1A6002F0C7
S31508003C6043FB14284FF00900C7BF6FF013014FF04C
S31508003C70FF320A21012204F0C1FB0920012104F0C8
S31508003C80F1FF074B1878074903F09CFF06484FF4E5
S31508003C901671064A06F054FD08BD00BF2805002027
S31508003CA07402002014EB000824EB00085D3A0008B3
S31508003CB02DE9F84306460F460022254B0AF05CF824
S31508003CC0A0B308E0204609F029FD32463B460AF033
S31508003CD077F870B303E040F237244FF0000808F194
S31508003CE0FF321C4B53F82250A8F1290009F016FDA3
S31508003CF080468946284609F011FD02460B4630469D
S31508003D00394609F06FFB06460F46601B09F006FDAB
S31508003D1002460B463046394609F0B6FE02460B46C1
S31508003D204046494609F060FBBDE8F883094D4FF067
S31508003D30000808F1010855F8044F002CC2D102A169
S31508003D40D1E90001BDE8F8830000000000C0584032
S31508003D5000B8814038DE00082DE9D043144610A388
S31508003D60D3E9002309F048FD804689460EA3D3E926
S31508003D70002309F041FD06460F460DA1D1E90001D1
S31508003D8042464B4609F02EFB02460B46304639465C
S31508003D9009F07AFEFFF78CFFC4E90001BDE8D0837D
S31508003DA0F8C66F9AF9A14A3F000000000070B240B9
S31508003DB052B81E85EB510A4070B584B00546684670
S31508003DC0FDF728FF029C04EB84046300114C84FB76
S31508003DD00524ED17C5EB6414B3FBF4F4B4F5803F82
S31508003DE006D3012564086D00B4F5803FFAD200E0D9
S31508003DF00125094E30462146FEF7DEFF691E30468C
S31508003E0089B20022FEF7C8FF30466108FFF7ECF8D2
S31508003E1004B070BD1F85EB510004004010B520B1F9
S31508003E200C460246104B1B6863B1104C2046002115
S31508003E30FEF7C2FF20460021FFF7D6F80C4806F029
S31508003E40D7FC10BD4FF47A7000FB02F0FFF7B4FF01
S31508003E50084B1B6804EB840403EB4404064B1C6004
S31508003E60034806F0D3FC10BDBC0300200004004044
S31508003E7030EB000868040020C801002008B5094B8B
S31508003E801B68B3F1FF3F0BD0074A1268934207D26B
S31508003E9000200146FFF7C2FF4FF0FF32014B1A60C0
S31508003EA008BD00BFC80100206804002008B5034B00
S31508003EB05B680BB9FFF7B2FF08BD00BFBC03002063
S31508003EC008B5114B99607F2804D110480021FEF7E8
S31508003ED073FF08BD0E4B83FB0032C317C3EB6203A7
S31508003EE003EB4302A0EB82000A4A52F82000052B96
S31508003EF002DD053B984004E0042BDCBFC3F1050353
S31508003F001841FFF759FF08BD9C1400200004004023
S31508003F10ABAAAA2A6CE0000808B5034B5B680BB984
S31508003F20FFF7CEFF08BD00BFBC030020194B5B6836
S31508003F309BB1194A926882B916498A68501C8860EA
S31508003F40985C58B9CA682AB1013ACA6001228A60DF
S31508003F50187803E000220F4B5A6070470D4B5968DA
S31508003F600029FAD010B51A469B685C1C9460C95C97
S31508003F700A4B5B684EF6602292FBF3F303FB01F3F0
S31508003F80074981FB0321DB17C3EB6111FFF798FF94
S31508003F9010BD00BFBC0300209C140020C8010020EF
S31508003FA01F85EB5108B550B1084BD96000219960BF
S31508003FB058604FF47A700A21FFF730FF08BD0021D8
S31508003FC0024B59600846FFF729FF08BDBC030020CD
S31508003FD008B503480221FFF7E5FF002008BD00BF2A
S31508003FE0D0010020F0B587B002200121FDF7C0FE00
S31508003FF004A8FEF7C9FE0127ADF810701023ADF826
S31508004000123043F69823ADF814300024ADF8164064
S31508004010364D284604A9FEF78FFE4FF470730293B7
S31508004020334E304606210222FDF79EF93046072117
S315080040300222FDF799F9304608210222FDF794F984
S31508004040304609210222FDF78FF902238DF80C303C
S315080040508DF80E408DF80F408DF80D70304602A988
S31508004060FDF708F96023ADF80030ADF802704FF49B
S31508004070FA66ADF80460ADF8064028466946FEF7CC
S31508004080F7FEADF8046028466946FEF70FFFADF85F
S31508004090046028466946FEF72DFF28466946FEF75E
S315080040A04BFF28463946FEF7D5FE124B5C609C60EE
S315080040B0DC607822104B5A6020462146FFF7F6FE50
S315080040C00E4864210E4A06F03BFB0E480A210E4AAA
S315080040D006F036FB0D4B18780D4903F073FD0D48B5
S315080040E003210D4A06F0F4FD07B0F0BD00040040B8
S315080040F000080240BC030020C801002030EB00087D
S315080041007D3E000838EB00082D3F000874020020A9
S3150800411044EB000854EB0008D13F00082DE9F84F9E
S31508004120224B1B7A002B3ED0204E4FF00008474604
S31508004130C346DFF880A03546737A4BB3B3690BB133
S315080041403846984785F809B0DAF800300133CAF8D6
S315080041500030174B1B68022B1AD905F063F808F5CF
S315080041608070297A05F06AF8B5F91030002B0DDD54
S315080041705C4608F582796B6904EB0900195905F064
S315080041805DF80434B5F91030A342F4DC05F052F8B2
S31508004190B5F9103004339844013795F8243013B133
S315080041A01C36092FC7D1BDE8F88F00BF2C050020A3
S315080041B0AC140020CC0300202DE9F0474FEA202854
S315080041C0C0B2284B1B7A002B46D0DFF898C00027D0
S315080041D0B946DFF894E0434533D1DCF80C60337810
S315080041E07BB3834220D103E01833844220D102E016
S315080041F04FF0000A554639B1C7EBC703194800EB1B
S3150800420083035B691D440D602AB1C7EBC7031549D3
S3150800421001EB83031360C7EBC707124B03EB870752
S31508004220F8685044BDE8F08733464D46C6F118068F
S315080042301C7B1EF80440254406EB030A1C7E002C52
S31508004240D2D101379CF824304BB10CF11C0C092F44
S31508004250C1D10020BDE8F0870020BDE8F087002026
S31508004260BDE8F0872C0500209CE0000810B586B054
S315080042700446039105A904AAFFF79EFF58B1037BDC
S31508004280059803A90A4AD25C05F0DAFD0122049BC7
S315080042905A7200200AE0074B1878059B00930649D6
S315080042A02246039B03F08EFC4FF0FF3006B010BD8C
S315080042B09CE00008740200205CEB000810B582B090
S315080042C00C4601A90022FFF777FF40B1037B204681
S315080042D00199054AD25C05F0B3FD002001E04FF0D4
S315080042E0FF3002B010BD00BF9CE0000830B585B0B5
S315080042F00C4603A901AAFFF75FFF20B3037B144A04
S31508004300D55C042B09D0072B07D0022B0DD10398B7
S3150800431021466A1E05F0BAFD10E023780293039839
S3150800432002A92A4605F08CFD08E0204605F0A0FE05
S315080043300290039802A92A4605F082FD0122019BF4
S315080043405A72002001E04FF0FF3005B030BD00BFC3
S315080043509CE0000810B582B00C4601A90022FFF7C0
S315080043602BFF00B3037B124AD25C042B09D0072B20
S3150800437007D0022B0CD12046019905F087FD0020B5
S3150800438013E0019B1B7823700023637018460CE02A
S315080043906846019905F054FD20460649009A03F03F
S315080043A023FC002001E04FF0FF3002B010BD00BF33
S315080043B09CE000083CF300082DE9F04F83B007465F
S315080043C03A4903F0FFFB3A4B1B7A002B64D0DFF81F
S315080043D0009109F1FC0B4FF0000ADFF8F8804D4612
S315080043E0B9F900309A443846324959F8102C59F828
S315080043F00C3C03F0E7FB59F8043C1B78002B44D02F
S31508004400002426466A689059019015F8082C384603
S31508004410414643EA022203F0D5FB55F8043C2344FF
S315080044201B7B023B052B18D8DFE803F010170A039D
S31508004430030A6B68384620499A5D03F0C3FB11E00E
S3150800444038461E49019A03F0BDFB0BE06A683846F8
S315080044501B49324403F0B6FB04E038461649019A74
S3150800446003F0B0FB55F8043C2344384615495A680E
S3150800447003F0A8FB55F8043C1A19127B12498A5C0A
S31508004480164418341B5D002BBCD12B7D33B109F1C2
S315080044901C09D945A3D101E04FF0000A38460B495B
S315080044A0524603F08FFB03B0BDE8F08F7CEB0008A3
S315080044B02C0500208CEB00083CF30008A8EB00084C
S315080044C0ACEB0008B0EB00089CE00008B8EB00086D
S315080044D03C05002098EB000810B5044600210A4662
S315080044E0FFF76AFE60B10346027B022A04D1204622
S315080044F05969FFF7FBFE10BD20461969FFF7B6FE9E
S3150800450010BD00BFF0B583B006460D46C0EBC0022D
S315080045103E4B03EB8203DB681A784AB100223C481B
S31508004520197B415C0A4413F8181F0029F8D100E0EA
S31508004530002242F00302541C204601F0B5FE334F18
S31508004540C6EBC60307EB830358611C82002122468B
S3150800455005F084FC3B7A83B1002E10DD3B4600242F
S315080045602146B3F9102004321444013193F824206B
S3150800457032B11C33B142F4D102E0002400E0002439
S3150800458045B1C6EBC603214A02EB8303DB681B78F9
S3150800459053BB39E004F5807004F038FEC6EBC60359
S315080045A01A4A02EB83031B7A9842EAD1C6EBC60382
S315080045B002EB8303B3F91030002B25DD002504F543
S315080045C08274C6EBC60602EB8606601904F01EFE68
S315080045D002AB43F8040D7269186850510435B6F9F0
S315080045E01030AB42F1DC0FE01825C6EBC606074AC9
S315080045F002EB8606307A43EA0020FFF76DFFF36880
S315080046005B5D1835002BF5D103B0F0BD2C050020F5
S315080046109CE0000870B50B4B18780B4903F0D2FAEA
S315080046200A4B1B7A6BB1094D0024012620463146F8
S31508004630FFF768FF013495F8243013B11C35092CAF
S31508004640F4D170BD74020020D4EB00082C050020BC
S3150800465070B586B006460D460C6820462F4905F00B
S3150800466089FC28B92E4B1878FFF7A6FE002052E0E1
S3150800467020462C4905F07EFC38B9FFF7CBFF284BBE
S315080046801878FFF799FE002045E02046264905F0F0
S3150800469071FC08BB032E1FD1686805F0B7FCA96832
S315080046A0FFF724FE28B11E4B1878204903F08AFA32
S315080046B010E0686805F0AAFC01A9FFF74BFE184B45
S315080046C01C78686805F0A2FC02462046184901AB2A
S315080046D003F078FA00201EE02046164905F04AFC49
S315080046E0A0B9022E15D1A86805F090FC01A9FFF71C
S315080046F031FE0B4B1C78A86805F088FC024620465C
S315080047000D4901AB03F05EFA002004E04FF0FF30DC
S3150800471001E04FF0FF3006B070BD00BFF4EB0008B3
S3150800472074020020FCEB000804EC000808EC000802
S3150800473018EC000838EC00083CEC00082DE9F84FA6
S315080047408046894692469B46214B1878214942461F
S315080047504B4603F037FA204B1B7A6BBB03E095F800
S315080047602430C3B900E000241B49C4EBC4029200FC
S315080047708B1841F80280C3F80490C3F80CB00121E5
S31508004780597283F808A00A9A9A6120460021FFF711
S31508004790B9FEBDE8F88F38783146224655F81C3FF1
S315080047A003F010FA0134092CD9D1094B18780B49B2
S315080047B003F008FABDE8F88F074D054B1878084945
S315080047C000222B6803F0FEF90124014F044EC6E7C8
S315080047D07402002048EC00082C05002070EC000844
S315080047E058EC000808B50E4B03F1FC0100221A70BC
S315080047F043F8082C1A611C338B42F8D109484FF448
S315080048007A71094A05F09CFF08480021084A06F013
S315080048105FFA084B18780849092203F0D3F908BD4E
S315080048203405002080EC00081D41000888EC0008CB
S3150800483051460008740200208CEC000808B54FF4B5
S3150800484096706421FFF732FB08BD00BF00B583B040
S3150800485002461423009332230193002001210B46BC
S3150800486000F0DAFE03B05DF804FB00BF08B50D4B97
S315080048701B689A1E012A06D80020782101221346B1
S3150800488000F074FE08BD33B10020782101220346EA
S3150800489000F06CFE08BD002078210246034600F0B1
S315080048A065FE08BDD003002070B58AB0634B1B793E
S315080048B00BBB4FF6FF760096614B0193614C5F4D3B
S315080048C0AB68C3EBC30304EB83031B7A0293012093
S315080048D001460246002300F097FF0096AB68C3EB3B
S315080048E0C30354F823300193012000210A460B46DE
S315080048F000F08AFF9FE0012B5FD1504CA168514B15
S31508004900CA00501A03EB8000007A521A03EB82029F
S31508004910E368D26803EB430312F8333043EA002016
S3150800492005A9FFF717FD58B94FF6FF73009305ABB6
S315080049300193012000210A460B4600F065FF0AE0B4
S315080049404FF6FF730093404B0193012000210A465E
S315080049500B4600F059FF394DAA68002600963B4BD6
S315080049600193384CD300991A04EB8101097A029114
S315080049709B1A04EB8303E968DB6801EB410113F832
S3150800498031300393012001463246072300F03CFFED
S315080049900096AB68C3EBC30304EB8304EB68E268D9
S315080049A003EB430302EBC3039B6801930120014613
S315080049B00246072300F028FF3DE0022B3BD10024E6
S315080049C0009401940A230293039401202146204A65
S315080049D0234600F039FF194EB26800941D4B019327
S315080049E0184DD300991A05EB8101097A02919B1A91
S315080049F005EB8303F268DB6802EB420213F83230F8
S31508004A000393012001462246072300F0FDFE009489
S31508004A10B368C3EBC30305EB8305F368EA6803EBE6
S31508004A20430302EBC3039B68019301200146024638
S31508004A30072300F0E9FE0AB070BD00BFD0030020CE
S31508004A40B4EC00082C050020BCEC0008C4EC0008F7
S31508004A5030060020D0EC00080E2800F2D780DFE8E8
S31508004A6010F0B700B700B700B700B700B700B70037
S31508004A70B700B700B70075004D003900D5000F0024
S31508004A806C4B1B792BB96B4B0022DA60012018712D
S31508004A907047022B40F0BC8010B5664901230B71A4
S31508004AA08C68654BE200101B03EB8000007A121B32
S31508004AB003EB8202CB68D26803EB430312F8333068
S31508004AC043EA00205D4B1968FFF7D0FBB0FA80F087
S31508004AD0400910BD574B1B79012B04D10022554BB9
S31508004AE01A7101207047022B03D10120514B18710E
S31508004AF070470022524B1A60012070474D4B1B79B4
S31508004B003BB94C4B9B687BB1013B4A4A93600120F9
S31508004B107047012B08D1474BDB68002B04DD013BAE
S31508004B20444AD36001207047424B1B69002B71D061
S31508004B30444B1B68012B6FDD434A82FB0312DB17CC
S31508004B40C3EBA2033F4A136001207047394B1B7918
S31508004B50A3B9384B9B680133082B29DC354A1269FF
S31508004B60002A29D1C3EBC302334901EB8202127A28
S31508004B70002A53D02F4A936001207047012B17D182
S31508004B802C4B1B69C3B92B4BD9689B68C3EBC30372
S31508004B90294A02EB83024B1CD26803EB430312F843
S31508004BA03330002B3CD00131224BD96001207047AD
S31508004BB0204B1B69002B35D0224B1B68234A934296
S31508004BC032DC03EB83035B001E4A13600120704747
S31508004BD0184B1B79012B08D10022184B1A600222A8
S31508004BE0144B1A710122174B1A60124B1B79022BB0
S31508004BF01CD1124B1B68164A934219DC03EB83033C
S31508004C0000EB43000D4B18600120704700207047E9
S31508004C10002070470020704700207047002070472A
S31508004C20002070470020704700207047002070471A
S31508004C3000207047D00300202C05002030060020F5
S31508004C40F00300202C060020676666663F420F00C8
S31508004C507F96980008B5074B186028B106480121C9
S31508004C60FEF7F8F8012008BD03480021FEF7F2F820
S31508004C70002008BDEC030020000C014070B4044677
S31508004C80C0EB80120E4B53F82220132A14D8104674
S31508004C901E46A5012B1B02EB4303443306EB4303D5
S31508004CA01971597901F0F0016FF3071159712C1B2D
S31508004CB0013246F8242001E04FF0FF3070BC7047FF
S31508004CC034060020C0EB8010820002F1B9030549C2
S31508004CD00B44D9320A44002103F8011F9342FBD141
S31508004CE0704700BF340600202DE9F04F99B0BB4B42
S31508004CF05A681446099215469A6801329A602046FF
S31508004D00FFF7E0FFC4EB8412B54B53F82230002BB3
S31508004D1000F08083B24B03EB820600241F469046C0
S31508004D204FEA820A03EB0A0904EB480307EB43033D
S31508004D3093F88D3013F00F0316D004EB480207EBF7
S31508004D40420292F88D2003EB1212A4498868B0FB40
S31508004D50F2F102FB11029A4206D207EB0A00BA30B8
S31508004D6096F88C1001F036F801340236D9F800307E
S31508004D709C42D9D34EE34FB99A4C11264FF0FF33D4
S31508004D8002934FF0050A0B23089305E0964C062676
S31508004D9001230293B2460893079991F8B43006FBAB
S31508004DA003F391F8B85093FBF5F591F8B630013B4B
S31508004DB0032B45D8DFE803F00416023E56BB3FE056
S31508004DC0002E3DD001344FF00008454504DD09F1B9
S31508004DD00200217800F0FEFF08F101080134B04511
S31508004DE0F3D12DE07D4B9B68B3FBF6F206FB12333D
S31508004DF012F0010F06D01C4409F10200617800F098
S31508004E00E9FF1DE00136F31A09F10200E15C00F042
S31508004E10E1FF15E001344FF00008A84504D009F178
S31508004E200200217800F0D6FF08F101080134B045E8
S31508004E30F3D105E0254409F10200697800F0CAFFBC
S31508004E4007EB0713059A02EB83035B449B7903F090
S31508004E500F0212EB13130AD060498C68B4FBF3F106
S31508004E6003FB1143934234BF0024012400E00024CD
S31508004E70049B9B68002B40F0EE82049BDB68002BAA
S31508004E8040F0EB8207EB0713069A134423440BEB17
S31508004E9083039B684FF6FF72934220D0FBB1013B18
S31508004EA007EB071206990A4422440BEB8202936029
S31508004EB0ABB954B907EB0713059A02EB83035B44B6
S31508004EC09A796FF303029A7109E007EB0713059ABB
S31508004ED002EB83035B449A796FF307129A7107EB27
S31508004EE00713059A02EB83035B4423441A79A2BB92
S31508004EF004F1020807EB07139B0003EB0818059B50
S31508004F009844D84408F104030393184604F0B2FF02
S31508004F10824580F2B081354B19683A01D319059E4E
S31508004F2006EB83035B44234493F84480C8EB0108EB
S31508004F305FFA88F80130CAEB0000B8FBF0F300FB13
S31508004F40138808EB041402EB070804EB8808B0443E
S31508004F50D84408F1240303938DE107EB0713069958
S31508004F600B4423440BEB8303DE69012A07D107EBC5
S31508004F7007130B4423440BEB83031D6918E0052A2A
S31508004F800DD107EB071306990B4423440BEB830358
S31508004F901B6919680D915B680C93002508E007EBFF
S31508004FA0071306990B4423440BEB83031B691D68FF
S31508004FB007EB0713059901EB83035B4423441B7E28
S31508004FC0052B00F05D82072B00F05682062B00F0B9
S31508004FD05782082B40F08D8056E200BFEC03002074
S31508004FE0340600201002002008020020AC1400201D
S31508004FF0B74B1D68002D77D0B64A85FB0223EA1801
S31508005000EB17C3EB2213C3EB0313A5EB4303B24A17
S31508005010954201DD132B33DCB04E86FB05362E4454
S31508005020E917C1EBE626AE4A82FB0632F317C3EB55
S31508005030A20202EB4202A74B83FB05042C44C1EBF8
S31508005040641483FB04132344E117C1EB6313C3EB16
S315080050500313C4EB0411A5EB8101009114A8A1491F
S31508005060A6EBC202A4EB830302F0BEFD15F0010F06
S3150800507009F1020014BF4721572100F0ABFE24E2D4
S31508005080153B072B2BD8984B83FB05232B44E81796
S31508005090C0EB234011A905F067F9139A934880FBE2
S315080050A00236D317C3EB66166424DDF848E080FBA6
S315080050B00E314FEAEE73C3EB6113119D80FB0510A9
S315080050C0E917C1EB601104FB1155009514A888492E
S315080050D004FB162204FB13E302F086FDF5E114A88F
S315080050E0844902F081FDF0E114A8834902F07CFDB1
S315080050F0EBE1052A26D10D980C990022002308F029
S315080051003BFE60B10C9B03F100430C93009611A87B
S315080051107A492522C6F1040302F066FD07E00096E7
S3150800512011A877492522C6F1050302F05DFD0EA8F0
S3150800513011A90D9A0C9B02F057FD14A80EA904F0AC
S31508005140C3FE6BE0002E64D0002F62D185EAE578B5
S31508005150A8EBE57842F20F726A4931EA250128BFC1
S3150800516011460391013BDBB2012B22D8414515DAE2
S3150800517000236549042281FB08E04FEAE878C8EB7A
S31508005180A008022ECEBF06F1FF3601331646039855
S31508005190404580F29381022BEDDD88E109F102009A
S315080051A01C2100F017FE04E009F102001D2100F0A1
S315080051B011FE039B984504DD14A8544902F014FD1A
S315080051C02DE0002D14A8B4BF51495249424602F0B9
S315080051D00BFD042E05D109F10200142100F0FAFD99
S315080051E01DE0032E05D109F102000C2100F0F2FDA5
S315080051F015E0022E05D109F10200042100F0EAFDAE
S315080052000DE0012E0BD109F10200682100F0E2FD44
S3150800521005E014A840492A4602F0E6FC37BB059B80
S315080052205B441C44237E013B032B22D8DFE803F0B2
S315080052300702121809F10200252100F0CBFD09F139
S3150800524002042046202100F0C5FD2046242100F056
S31508005250C1FD3DE109F10200282100F0BBFD37E15F
S3150800526009F10200242100F0B5FD31E114AB0393E6
S3150800527001E014AB0393002426460A972746DDF877
S31508005280208000E0013497B9039B1D5D002D45D0B1
S31508005290A5F14103DBB2192B0AD809F10200A5F1E1
S315080052A03701029B03FB068200F0AAFD4FE020258A
S315080052B0A5F16103DBB2192B31D809F10200A5F17A
S315080052C05701029B03FB068200F09AFD3FE000BFF0
S315080052D0AC140020898888883F420F00C5B3A29184
S315080052E0ABAAAA2ADCEC000807452EC21F85EB519B
S315080052F0E8EC0008F4EC0008FCEC000804ED0008F3
S3150800530010ED00089F86010067666666BCEC00081B
S315080053101CED000824ED00082CED00080127A5F176
S315080053203003DBB2092B09D809F10200A5F13001D7
S31508005330029B03FB068200F063FD08E02D2D06D1D3
S315080053403CBB09F10200162100F044FD21E02E2D98
S315080053501FD1012C05D109F10200142100F03AFDF4
S31508005360B9E0022C05D109F102000C2100F032FD4A
S31508005370B1E0032C05D109F10200042100F02AFD51
S31508005380A9E0042C06D109F10200682100F022FDEB
S31508005390A1E00136631CB24504DD092B7FF772AF25
S315080053A00A9F00E00A9F0137049B44330493079B36
S315080053B001330793022F7FF4DEAC91E013F8010F57
S315080053C012F8011F884207D1A342F7D1A1E0584B32
S315080053D0DB68002B00F0A980099BC3EB8310554CB2
S315080053E004EB8000BA3000F049FC0B9A1346B93337
S315080053F0234402F1D9002044024613F8011F02F89B
S31508005400011F8342F9D14A4B59684B4A1160002261
S31508005410DA608AE0099BC3EB83139B001A460B9359
S31508005420444B1344079304934FF00008434C11264A
S315080054304FF0FF3302934FF0050A0B230893C5EB91
S31508005440851306939B00059303F1B809DFF8E4B0CA
S31508005450D9444746A0E4002400E0012407EB0713DB
S31508005460069A134423440BEB83039B684FF6FF729B
S3150800547093427FF414AD32E5012F7FF4CFAE13E0EB
S31508005480012F7FF4CBAE4CE0012F7FF4C7AEAFE51A
S315080054902B4A85FB0223EA18EB17C3EB2213C3EB4F
S315080054A00313A5EB4303B5E5002DF1D11CE6002B4C
S315080054B03FF474AE012B3FF477AE7DE6002B3FF444
S315080054C06DAE012B3FF470AE7BE614AB0393D2E6C8
S315080054D014AB0393CFE6B2453FF7D4AE0A9F62E713
S315080054E0099BC3EB8313134A02EB830393F8DA2071
S315080054F093F8BA309A427FF46FAF0B980346DA33C3
